{
  "contractName": "Location",
  "abi": [
    {
      "constant": true,
      "inputs": [],
      "name": "totalHouses",
      "outputs": [
        {
          "name": "",
          "type": "uint256"
        }
      ],
      "payable": false,
      "stateMutability": "view",
      "type": "function"
    },
    {
      "constant": false,
      "inputs": [
        {
          "name": "_houseId",
          "type": "uint256"
        },
        {
          "name": "_currentOwner",
          "type": "address"
        },
        {
          "name": "_newOwner",
          "type": "address"
        }
      ],
      "name": "sellHouse",
      "outputs": [
        {
          "name": "",
          "type": "uint256"
        }
      ],
      "payable": false,
      "stateMutability": "nonpayable",
      "type": "function"
    },
    {
      "constant": false,
      "inputs": [
        {
          "name": "_location",
          "type": "string"
        }
      ],
      "name": "createHouse",
      "outputs": [
        {
          "name": "",
          "type": "uint256"
        }
      ],
      "payable": false,
      "stateMutability": "nonpayable",
      "type": "function"
    },
    {
      "constant": true,
      "inputs": [
        {
          "name": "_houseId",
          "type": "uint256"
        },
        {
          "name": "_address",
          "type": "address"
        }
      ],
      "name": "addressInformation",
      "outputs": [
        {
          "name": "",
          "type": "uint256"
        },
        {
          "name": "",
          "type": "string"
        },
        {
          "name": "",
          "type": "address"
        }
      ],
      "payable": false,
      "stateMutability": "view",
      "type": "function"
    },
    {
      "constant": true,
      "inputs": [
        {
          "name": "_address",
          "type": "address"
        }
      ],
      "name": "totalHousesByAddress",
      "outputs": [
        {
          "name": "",
          "type": "uint256"
        }
      ],
      "payable": false,
      "stateMutability": "view",
      "type": "function"
    },
    {
      "constant": true,
      "inputs": [
        {
          "name": "_houseId",
          "type": "uint256"
        }
      ],
      "name": "houseInformation",
      "outputs": [
        {
          "name": "",
          "type": "uint256"
        },
        {
          "name": "",
          "type": "string"
        },
        {
          "name": "",
          "type": "address"
        }
      ],
      "payable": false,
      "stateMutability": "view",
      "type": "function"
    },
    {
      "inputs": [],
      "payable": false,
      "stateMutability": "nonpayable",
      "type": "constructor"
    }
  ],
  "bytecode": "0x6060604052341561000f57600080fd5b336000806101000a81548173ffffffffffffffffffffffffffffffffffffffff021916908373ffffffffffffffffffffffffffffffffffffffff1602179055506112d28061005e6000396000f300606060405260043610610078576000357c0100000000000000000000000000000000000000000000000000000000900463ffffffff168063162d8afb1461007d57806344c0bba5146100a6578063821f9cb31461011b578063b5df157f1461018c578063bd481c0a14610281578063cd9c21bf146102ce575b600080fd5b341561008857600080fd5b6100906103a4565b6040518082815260200191505060405180910390f35b34156100b157600080fd5b610105600480803590602001909190803573ffffffffffffffffffffffffffffffffffffffff1690602001909190803573ffffffffffffffffffffffffffffffffffffffff169060200190919050506103b1565b6040518082815260200191505060405180910390f35b341561012657600080fd5b610176600480803590602001908201803590602001908080601f016020809104026020016040519081016040528093929190818152602001838380828437820191505050505050919050506109b9565b6040518082815260200191505060405180910390f35b341561019757600080fd5b6101cc600480803590602001909190803573ffffffffffffffffffffffffffffffffffffffff16906020019091905050610bd7565b60405180848152602001806020018373ffffffffffffffffffffffffffffffffffffffff1673ffffffffffffffffffffffffffffffffffffffff168152602001828103825284818151815260200191508051906020019080838360005b83811015610244578082015181840152602081019050610229565b50505050905090810190601f1680156102715780820380516001836020036101000a031916815260200191505b5094505050505060405180910390f35b341561028c57600080fd5b6102b8600480803573ffffffffffffffffffffffffffffffffffffffff16906020019091905050610dc5565b6040518082815260200191505060405180910390f35b34156102d957600080fd5b6102ef6004808035906020019091905050610ef1565b60405180848152602001806020018373ffffffffffffffffffffffffffffffffffffffff1673ffffffffffffffffffffffffffffffffffffffff168152602001828103825284818151815260200191508051906020019080838360005b8381101561036757808201518184015260208101905061034c565b50505050905090810190601f1680156103945780820380516001836020036101000a031916815260200191505b5094505050505060405180910390f35b6000600280549050905090565b6000806103bc611028565b6000866002818154811015156103ce57fe5b906000526020600020906003020160020160009054906101000a900473ffffffffffffffffffffffffffffffffffffffff1673ffffffffffffffffffffffffffffffffffffffff163373ffffffffffffffffffffffffffffffffffffffff1614151561043957600080fd5b61044287610dc5565b9350600160008873ffffffffffffffffffffffffffffffffffffffff1673ffffffffffffffffffffffffffffffffffffffff168152602001908152602001600020805480602002602001604051908101604052809291908181526020016000905b828210156105d857838290600052602060002090600302016060604051908101604052908160008201548152602001600182018054600181600116156101000203166002900480601f01602080910402602001604051908101604052809291908181526020018280546001816001161561010002031660029004801561056a5780601f1061053f5761010080835404028352916020019161056a565b820191906000526020600020905b81548152906001019060200180831161054d57829003601f168201915b505050505081526020016002820160009054906101000a900473ffffffffffffffffffffffffffffffffffffffff1673ffffffffffffffffffffffffffffffffffffffff1673ffffffffffffffffffffffffffffffffffffffff1681525050815260200190600101906104a3565b505050509250600091505b838210156109ab5782828151811015156105f957fe5b906020019060200201516000015188141561099e5785838381518110151561061d57fe5b906020019060200201516040019073ffffffffffffffffffffffffffffffffffffffff16908173ffffffffffffffffffffffffffffffffffffffff1681525050600160008773ffffffffffffffffffffffffffffffffffffffff1673ffffffffffffffffffffffffffffffffffffffff16815260200190815260200160002080548060010182816106ae919061103c565b9160005260206000209060030201600085858151811015156106cc57fe5b90602001906020020151909190915060008201518160000155602082015181600101908051906020019061070192919061106e565b5060408201518160020160006101000a81548173ffffffffffffffffffffffffffffffffffffffff021916908373ffffffffffffffffffffffffffffffffffffffff1602179055505050508560028381548110151561075c57fe5b906000526020600020906003020160020160006101000a81548173ffffffffffffffffffffffffffffffffffffffff021916908373ffffffffffffffffffffffffffffffffffffffff160217905550600160008873ffffffffffffffffffffffffffffffffffffffff1673ffffffffffffffffffffffffffffffffffffffff168152602001908152602001600020600185038154811015156107fa57fe5b9060005260206000209060030201600160008973ffffffffffffffffffffffffffffffffffffffff1673ffffffffffffffffffffffffffffffffffffffff1681526020019081526020016000208381548110151561085457fe5b906000526020600020906003020160008201548160000155600182018160010190805460018160011615610100020316600290046108939291906110ee565b506002820160009054906101000a900473ffffffffffffffffffffffffffffffffffffffff168160020160006101000a81548173ffffffffffffffffffffffffffffffffffffffff021916908373ffffffffffffffffffffffffffffffffffffffff160217905550905050600160008873ffffffffffffffffffffffffffffffffffffffff1673ffffffffffffffffffffffffffffffffffffffff1681526020019081526020016000206001850381548110151561094d57fe5b90600052602060002090600302016000808201600090556001820160006109749190611175565b6002820160006101000a81549073ffffffffffffffffffffffffffffffffffffffff021916905550505b81806001019250506105e3565b879450505050509392505050565b60006109c36111bd565b6000809054906101000a900473ffffffffffffffffffffffffffffffffffffffff1673ffffffffffffffffffffffffffffffffffffffff163373ffffffffffffffffffffffffffffffffffffffff16141515610a1e57600080fd5b60606040519081016040528060028054905081526020018481526020013373ffffffffffffffffffffffffffffffffffffffff168152509050600160003373ffffffffffffffffffffffffffffffffffffffff1673ffffffffffffffffffffffffffffffffffffffff1681526020019081526020016000208054806001018281610aa8919061103c565b91600052602060002090600302016000839091909150600082015181600001556020820151816001019080519060200190610ae492919061106e565b5060408201518160020160006101000a81548173ffffffffffffffffffffffffffffffffffffffff021916908373ffffffffffffffffffffffffffffffffffffffff16021790555050505060028054806001018281610b43919061103c565b91600052602060002090600302016000839091909150600082015181600001556020820151816001019080519060200190610b7f92919061106e565b5060408201518160020160006101000a81548173ffffffffffffffffffffffffffffffffffffffff021916908373ffffffffffffffffffffffffffffffffffffffff1602179055505050508060000151915050919050565b6000610be16111fb565b6000600160008573ffffffffffffffffffffffffffffffffffffffff1673ffffffffffffffffffffffffffffffffffffffff16815260200190815260200160002085815481101515610c2f57fe5b906000526020600020906003020160000154600160008673ffffffffffffffffffffffffffffffffffffffff1673ffffffffffffffffffffffffffffffffffffffff16815260200190815260200160002086815481101515610c8d57fe5b9060005260206000209060030201600101600160008773ffffffffffffffffffffffffffffffffffffffff1673ffffffffffffffffffffffffffffffffffffffff16815260200190815260200160002087815481101515610cea57fe5b906000526020600020906003020160020160009054906101000a900473ffffffffffffffffffffffffffffffffffffffff16818054600181600116156101000203166002900480601f016020809104026020016040519081016040528092919081815260200182805460018160011615610100020316600290048015610db15780601f10610d8657610100808354040283529160200191610db1565b820191906000526020600020905b815481529060010190602001808311610d9457829003601f168201915b505050505091509250925092509250925092565b60008060008060009150600090505b600160008673ffffffffffffffffffffffffffffffffffffffff1673ffffffffffffffffffffffffffffffffffffffff16815260200190815260200160002080549050811015610ee6578173ffffffffffffffffffffffffffffffffffffffff16600160008773ffffffffffffffffffffffffffffffffffffffff1673ffffffffffffffffffffffffffffffffffffffff16815260200190815260200160002082815481101515610e8157fe5b906000526020600020906003020160020160009054906101000a900473ffffffffffffffffffffffffffffffffffffffff1673ffffffffffffffffffffffffffffffffffffffff16141515610ed95782806001019350505b8080600101915050610dd4565b829350505050919050565b6000610efb6111fb565b6000600284815481101515610f0c57fe5b906000526020600020906003020160000154600285815481101515610f2d57fe5b9060005260206000209060030201600101600286815481101515610f4d57fe5b906000526020600020906003020160020160009054906101000a900473ffffffffffffffffffffffffffffffffffffffff16818054600181600116156101000203166002900480601f0160208091040260200160405190810160405280929190818152602001828054600181600116156101000203166002900480156110145780601f10610fe957610100808354040283529160200191611014565b820191906000526020600020905b815481529060010190602001808311610ff757829003601f168201915b505050505091509250925092509193909250565b602060405190810160405280600081525090565b81548183558181151161106957600302816003028360005260206000209182019101611068919061120f565b5b505050565b828054600181600116156101000203166002900490600052602060002090601f016020900481019282601f106110af57805160ff19168380011785556110dd565b828001600101855582156110dd579182015b828111156110dc5782518255916020019190600101906110c1565b5b5090506110ea919061126d565b5090565b828054600181600116156101000203166002900490600052602060002090601f016020900481019282601f106111275780548555611164565b8280016001018555821561116457600052602060002091601f016020900482015b82811115611163578254825591600101919060010190611148565b5b509050611171919061126d565b5090565b50805460018160011615610100020316600290046000825580601f1061119b57506111ba565b601f0160209004906000526020600020908101906111b9919061126d565b5b50565b606060405190810160405280600081526020016111d8611292565b8152602001600073ffffffffffffffffffffffffffffffffffffffff1681525090565b602060405190810160405280600081525090565b61126a91905b80821115611266576000808201600090556001820160006112369190611175565b6002820160006101000a81549073ffffffffffffffffffffffffffffffffffffffff021916905550600301611215565b5090565b90565b61128f91905b8082111561128b576000816000905550600101611273565b5090565b90565b6020604051908101604052806000815250905600a165627a7a723058201e3f5dc70f41642a1b46c7702efe2111bf506a16ef93bad16da0acdd07c0c07e0029",
  "source": "pragma solidity ^0.4.18;\n\ncontract Location {\n  struct House {\n    uint id;\n    string location;\n    address owner;\n  }\n\n  address owner;\n\n  function Location() {\n    owner = msg.sender;\n  }\n\n  modifier onlyContractOwner {\n    require(msg.sender == owner);\n    _;\n  }\n\n  modifier onlyHomeOwner(uint _houseId) {\n    require (msg.sender == allHouses[_houseId].owner);\n    _;\n  }\n\n  mapping (address => House[]) housesHash;\n  House[] allHouses;\n\n  function createHouse(string _location) public onlyContractOwner returns (uint) {\n    House memory newHouse = House(allHouses.length, _location, msg.sender);\n    housesHash[msg.sender].push(newHouse);\n    allHouses.push(newHouse);\n    return newHouse.id;\n  }\n\n  function totalHousesByAddress(address _address) public view returns (uint) {\n    uint total;\n    address deleted = 0x0000000000000000000000000000000000000000;\n    for (uint i = 0; i < housesHash[_address].length; i++) {\n      if (housesHash[_address][i].owner != deleted) {\n        total ++;\n      }\n    }\n    return total;\n  }\n\n  function totalHouses() public view returns (uint) {\n    return allHouses.length;\n  }\n\n  function sellHouse(uint _houseId, address _currentOwner, address _newOwner) public onlyHomeOwner(_houseId) returns (uint) {\n    uint length = totalHousesByAddress(_currentOwner);\n    House[] memory currentHouses = housesHash[_currentOwner];\n    for (uint i = 0; i < length; i++) {\n      if (_houseId == currentHouses[i].id) {\n        currentHouses[i].owner = _newOwner;\n        housesHash[_newOwner].push(currentHouses[i]);\n        allHouses[i].owner = _newOwner;\n        housesHash[_currentOwner][i] = housesHash[_currentOwner][length - 1];\n        delete housesHash[_currentOwner][length - 1];\n      }\n    }\n    return _houseId;\n  }\n\n  //troubleshooting\n  function houseInformation (uint _houseId) public view returns (uint, string, address) {\n    return (allHouses[_houseId].id, allHouses[_houseId].location, allHouses[_houseId].owner);\n  }\n\n  //troubleshooting\n  function addressInformation(uint _houseId, address _address) public view returns (uint, string, address) {\n    return (housesHash[_address][_houseId].id, housesHash[_address][_houseId].location, housesHash[_address][_houseId].owner);\n  }\n}\n\n",
  "sourcePath": "/Volumes/code/Siempre/contracts/Location.sol",
  "compiler": {
    "name": "solc",
    "version": "0.4.18+commit.9cf6e910.Emscripten.clang"
  },
  "schemaVersion": "1.0.1",
  "updatedAt": "2018-02-01T03:13:16.474Z"
}